:040000008031132810
:100008007E1480318B1D09280A2811280B1C0D2805
:100018000E2811288131F02180317E1009008031AD
:1000280015282000AF01B001B101B201B301B4013C
:10003800B501B6017E1020008131722922000C180A
:10004800262827283C288C182A282B283C280C19D5
:100058002E282F283C280C1B322833283C28200027
:100068003008F1002F08F0008031CE2080316B2855
:1000780082311222803122000C108C100C118C114C
:100088000C128C120C1306302000A4000030A500BE
:1000980081310A2180317D082000A7007C08A60054
:1000A80080317A20803120002508B0002408AF0074
:1000B8009C300032890B5D280000652882311222AD
:1000C800803120000D1C69286A2862283328200006
:1000D80037083804031971287228772838088A00E5
:1000E80037080A0080312700161008002000AA01EE
:1000F800A71F7F2880288728A609A709A60A031909
:10010800A70AAA01AA0AA51F8A288B289028A40949
:10011800A509A40A0319A50A240825040319952882
:100128009628BF28A901A90AA2280130A435A50D3F
:10013800890B9A280130A8002808A907A51FA52817
:10014800A628992825082702031DAC28240826027A
:10015800031CAF28B028B4282408A6022508A73B0A
:100168000130A536A40C890BB5280130A902031D5E
:10017800BE28BF28A6282A080319C328C428C928C6
:10018800A609A709A60A0319A70A2708A500260889
:10019800A4000800F02822000C148C140C158C15EF
:1001A8000C168C16092922000C17092922000C1597
:1001B8008C15092922000C140C178C160929220009
:1001C8000C140C158C158C16092922000C140C150E
:1001D8008C158C160C1709297108003A0319F52893
:1001E80009297008003A0319CF28013A0319D728BA
:1001F800033A0319DA28013A0319DE28073A0319E2
:10020800E328013A0319E9280929080020003608DB
:10021800F3003508F2003408F1003308F0004C30E0
:10022800F7009530F6007F30F5002D30F40081316D
:100238003F218131013070072000B3000030713D4B
:10024800B4000030723DB5000030733DB60033088D
:10025800A0003408A1003508A2003608A300113018
:10026800A336A20CA10CA00C890B34292108FD008F
:100278002008FC0008000030FB000030FA000030C5
:10028800F9000030F800701C4A294B2953297408DA
:10029800F8077508F93D7608FA3D7708FB3D013007
:1002A800F435F50DF60DF70D890B54290130F336A9
:1002B800F20CF10CF00C890B5B29730872047104C1
:1002C8007004031D6829692947297B08F3007A0807
:1002D800F2007908F1007808F00008008131DA218D
:1002E80081318B170B172000AD01AE0122000C14D1
:1002F8008C140C158C150C168C160C1782310A22CE
:100308008131003A031989298A299329013020006B
:10031800AD070030AE3D8231062281310B1120003D
:100328002D032E04031D99299A2982298131E72159
:1003380081312000AD01AE0163008229803113288C
:10034800220090018C018D018E010830210090005F
:1003580080308C00FF308D00FF308E003E3023004F
:100368008D003F308C00240090018D0121009517ED
:1003780022009D01270016101514141016302000B5
:10038800AB000230AC008231002281318B150800AD
:1003980021001508C039173895000C302000950049
:1003A8000C30AB002B08B9000B1108008131A421D7
:1003B80081318131F921813182310E2281318131BE
:1003C800CC218131080022000C108C100C118C11EA
:1003D8000C128C120C1308002700161CF429F5299E
:1003E800F82980312220813108001030210099003D
:1003F800980122009601080020002C08B8002B085C
:10040800B700080020003908950008000B0C890C7B
:10041800013908001630210097000800200039082B
:0604280095000800080029
:020000040001F9
:04000E00E43FFF3E8E
:00000001FF
